:0400000006EF00F017
:1000080045ED06F000EE00F0290EEE6AE806FDE187
:08001800000EF86EF4EF03F096
:100600000001000A006400E8031027783120487ACE
:1006100020202000783130303020487A0078313086
:100620003020487A200078313020487A2020002578
:100630003575007631000000E8CFD9FF040E076F52
:10064000010E086FC0D0F350250A07E0D950E96EBB
:10065000EA6AF3CFEFFFD92AB6D0096B0A6B03C160
:10066000F6FFC3EC05F020EC06F026E3096B0A6BFD
:100670000A0E156F000E166B09C113F10AC114F1B1
:1006800086EC05F003C1F6FF060EF76E0800F55084
:100690001327000E1423D00E1325096FFF0E14210B
:1006A0000A6F032B03C1F6FFC3EC05F020EC06F044
:1006B00003E3DED794D00FD0032B0305106F10C1D6
:1006C000F6FF060EF76E0800F5CFE9FFE950F2E0FD
:1006D000750AF1E078D007C1E9FF08C1EAFF020E10
:1006E0000727000E0823EECF0BF1EDCF0CF1010E22
:1006F000E16EE150020DF350010F106F10C1F6FFD3
:10070000060EF76E0900F5CF11F10900F5CF12F1D1
:1007100011510B5D12510C5904E3E12AE150050A15
:10072000E8E1800EE1BE7F0E106F0951E15C0A51D5
:10073000800A105907E2E150095F000EE1BEFF0E8A
:100740000A5B02D0096B0A6B0A5109110DE0D950FE
:10075000E96EEA6A200EEF6ED92A0907D8A00A07C7
:1007600001010A510911F3E1E1CF06F10607010188
:10077000062929E00651020DF350010F106F10C138
:10078000F6FF060EF76E0900F5CF15F10A00F5CF5A
:1007900016F10BC113F10CC114F1EFEC04F013C10D
:1007A00013F114C114F10A0E156F000E166B6BECE9
:1007B00005F01351300FE16ED950E96EEA6AE1CFCE
:1007C000EFFFD92AD3D7032B0305106F10C1F6FF13
:1007D000060EF76E0800F5CFF3FFF36634D7D95055
:1007E000E96EEA6AEF6A000CB0EC05F097EC04F0F1
:1007F000030E0101036F000E14EC05F0330E01012E
:10080000036F060E046F32EC05F0640EE5EC05F0A4
:100810000101016B026B006B3CD0D4EC05F0B2CF50
:1008200001F1B3CF02F1A1A23DD0010E0101006F91
:1008300003EC06F0B2CF01F1B3CF02F1640EC8ECC5
:1008400005F0D8A0006BA1A22DD0020E006F12EC13
:1008500006F0B2CF01F1B3CF02F1640EC8EC05F09F
:1008600002E2010E006FA1A21DD0030E006F9CECEE
:1008700005F0B2CF01F1B3CF02F1A1A203D0010183
:1008800001690269640EC8EC05F00CE2020E006F0B
:1008900009D001010051C1E0010ACAE0030AD7E012
:1008A000010AE5E001C104F102C105F12F0E0101C9
:1008B000036F000E1CEC03F0030E036F000E14EC2C
:1008C00005F0000E0101036B046B32EC05F0036BC5
:1008D000010E14EC05F01CD00B0E036F060E046F16
:1008E00032EC05F01ED0260E036F060E046F32ECBC
:1008F00005F017D01D0E036F060E046F32EC05F0E5
:1009000010D0140E036F060E046F32EC05F009D000
:1009100001010051E1E0010AE6E0030AEBE0010A0F
:10092000F0E00051B6E0320EE5EC05F0B2D7959C50
:10093000839C959E839E93908190939281929394B1
:10094000819493968196140EF4EC05F0030E3FEC1F
:1009500006F0050EF4EC05F0030E3FEC06F0040E75
:100960000101036F1D0EE82EFED7032FFCD7030EE7
:100970003FEC06F0040E0101036F1D0EE82EFED7BA
:10098000032FFCD7020E3FEC06F0C80EE82EFED770
:10099000020E3FEC06F0080E3FEC06F0C80EE82E03
:1009A000FED7000E3FEC06F0080E3FEC06F0C80E36
:1009B000E82EFED736EC06F0000E3FEC06F0060EF1
:1009C0003FEC06F0C80EE82EFED7000E3FEC06F016
:1009D0000C0E3FEC06F0C80EE82EFED71200F36AAC
:1009E000F46A165115111BE0010EE96ED89016BF7E
:1009F00005D015371637E92AF9D7D890F336F436EB
:100A00001551135D1651145905E31551135F165115
:100A1000145BF380D89016331533E92EEED7F3CF5D
:100A200013F1F4CF14F11200E8CFD9FFD950400DE3
:100A30000351F326000EF422800EF326000EF4225A
:100A4000040E046FF434F432F332042FFBD7F35066
:100A50003FEC06F0D950400DF35001010325800F03
:100A60003FEF06F0CDEC05F0EA6403D0EA6EEF50FC
:100A700003D0F76E0800F5500009D8B41200CDEC91
:100A800005F0EA6403D0EA6EEF5003D0F76E080079
:100A9000F5502CEC06F00101034B042BE3D7E8CF13
:100AA000E9FFE9A002D0818001D08190E9A202D0C3
:100AB000818201D08192E9A402D0818401D0819405
:100AC000E9A602D0818601D08196838E900EE82E11
:100AD000FED7839E12001651151117E0010EE96E24
:100AE00016BF05D0D89015371637E92AF9D7155112
:100AF000135D1651145904E31551135F1651145B1D
:100B0000D89016331533E92EF2D71200F36AF46A3F
:100B100013A104D01551F3261651F422D89015379D
:100B20001637D8901433133314511311F1E1F3CF66
:100B300013F1F4CF14F11200A192B26AB36AB1803A
:100B4000100E036F910EE82EFED7032FFCD700F096
:100B500000F000F000F000F000F000F0B1901200A2
:100B60000F0EC16EF18E949A9498829A8288D56AFB
:100B7000F29ACD6A9D90CA6A9D92060EB16EA092BD
:100B8000F29EF29C060C060EF76E0800F55012005D
:100B90000101015D190E025912000351F66EE96E52
:100BA000050EEA6E04511200A192B26AB36AB180D6
:100BB000640EE5EC05F0100E0101036F910EE82EB6
:100BC000FED7032FFCD7B1901200E8CFE9FFE9066A
:100BD000E928D8B412009C0E0101046FA50EE82E7E
:100BE000FED7042FFCD7F3D7E8CFE9FFE906E928C1
:100BF000D8B41200100E0101046F910EE82EFED73A
:100C0000042FFCD7F3D7A192B26AB36AB1800A0E5F
:100C1000E5EC05F0000EE82EFED7640EE82EFED7B8
:100C2000B1901200A192B26AB36AB180010EE5ECF4
:100C300005F0280EE82EFED700F000F0B19012006B
:100C4000E8CFE9FF3A0EE96005D02F0EE96402D043
:100C5000D8802F0CD8901200E8CFF3FF838CF338A4
:100C60000F0B4FEC05F0F3504FEF05F0000E3FEC8B
:100C700006F0010E3FEC06F0050EF4EF05F0E8CFAC
:0E0C8000F3FF839CF3504FEF05F006001100C8
:00000001FF
